{
  "_format": "hh3-artifact-1",
  "contractName": "GRUSHToken",
  "sourceName": "contracts/src/GRUSHToken.sol",
  "abi": [
    {
      "inputs": [
        {
          "internalType": "address",
          "name": "admin",
          "type": "address"
        },
        {
          "internalType": "address",
          "name": "minter",
          "type": "address"
        },
        {
          "internalType": "address",
          "name": "burner",
          "type": "address"
        },
        {
          "internalType": "address",
          "name": "pauser",
          "type": "address"
        }
      ],
      "stateMutability": "nonpayable",
      "type": "constructor"
    },
    {
      "inputs": [],
      "name": "AccessControlBadConfirmation",
      "type": "error"
    },
    {
      "inputs": [
        {
          "internalType": "address",
          "name": "account",
          "type": "address"
        },
        {
          "internalType": "bytes32",
          "name": "neededRole",
          "type": "bytes32"
        }
      ],
      "name": "AccessControlUnauthorizedAccount",
      "type": "error"
    },
    {
      "inputs": [],
      "name": "ECDSAInvalidSignature",
      "type": "error"
    },
    {
      "inputs": [
        {
          "internalType": "uint256",
          "name": "length",
          "type": "uint256"
        }
      ],
      "name": "ECDSAInvalidSignatureLength",
      "type": "error"
    },
    {
      "inputs": [
        {
          "internalType": "bytes32",
          "name": "s",
          "type": "bytes32"
        }
      ],
      "name": "ECDSAInvalidSignatureS",
      "type": "error"
    },
    {
      "inputs": [
        {
          "internalType": "address",
          "name": "spender",
          "type": "address"
        },
        {
          "internalType": "uint256",
          "name": "allowance",
          "type": "uint256"
        },
        {
          "internalType": "uint256",
          "name": "needed",
          "type": "uint256"
        }
      ],
      "name": "ERC20InsufficientAllowance",
      "type": "error"
    },
    {
      "inputs": [
        {
          "internalType": "address",
          "name": "sender",
          "type": "address"
        },
        {
          "internalType": "uint256",
          "name": "balance",
          "type": "uint256"
        },
        {
          "internalType": "uint256",
          "name": "needed",
          "type": "uint256"
        }
      ],
      "name": "ERC20InsufficientBalance",
      "type": "error"
    },
    {
      "inputs": [
        {
          "internalType": "address",
          "name": "approver",
          "type": "address"
        }
      ],
      "name": "ERC20InvalidApprover",
      "type": "error"
    },
    {
      "inputs": [
        {
          "internalType": "address",
          "name": "receiver",
          "type": "address"
        }
      ],
      "name": "ERC20InvalidReceiver",
      "type": "error"
    },
    {
      "inputs": [
        {
          "internalType": "address",
          "name": "sender",
          "type": "address"
        }
      ],
      "name": "ERC20InvalidSender",
      "type": "error"
    },
    {
      "inputs": [
        {
          "internalType": "address",
          "name": "spender",
          "type": "address"
        }
      ],
      "name": "ERC20InvalidSpender",
      "type": "error"
    },
    {
      "inputs": [
        {
          "internalType": "uint256",
          "name": "deadline",
          "type": "uint256"
        }
      ],
      "name": "ERC2612ExpiredSignature",
      "type": "error"
    },
    {
      "inputs": [
        {
          "internalType": "address",
          "name": "signer",
          "type": "address"
        },
        {
          "internalType": "address",
          "name": "owner",
          "type": "address"
        }
      ],
      "name": "ERC2612InvalidSigner",
      "type": "error"
    },
    {
      "inputs": [],
      "name": "EnforcedPause",
      "type": "error"
    },
    {
      "inputs": [],
      "name": "ExpectedPause",
      "type": "error"
    },
    {
      "inputs": [
        {
          "internalType": "address",
          "name": "account",
          "type": "address"
        },
        {
          "internalType": "uint256",
          "name": "currentNonce",
          "type": "uint256"
        }
      ],
      "name": "InvalidAccountNonce",
      "type": "error"
    },
    {
      "inputs": [],
      "name": "InvalidShortString",
      "type": "error"
    },
    {
      "inputs": [
        {
          "internalType": "string",
          "name": "str",
          "type": "string"
        }
      ],
      "name": "StringTooLong",
      "type": "error"
    },
    {
      "inputs": [],
      "name": "ZeroAddress",
      "type": "error"
    },
    {
      "inputs": [],
      "name": "ZeroAmount",
      "type": "error"
    },
    {
      "anonymous": false,
      "inputs": [
        {
          "indexed": true,
          "internalType": "address",
          "name": "owner",
          "type": "address"
        },
        {
          "indexed": true,
          "internalType": "address",
          "name": "spender",
          "type": "address"
        },
        {
          "indexed": false,
          "internalType": "uint256",
          "name": "value",
          "type": "uint256"
        }
      ],
      "name": "Approval",
      "type": "event"
    },
    {
      "anonymous": false,
      "inputs": [
        {
          "indexed": true,
          "internalType": "address",
          "name": "from",
          "type": "address"
        },
        {
          "indexed": false,
          "internalType": "uint256",
          "name": "amount",
          "type": "uint256"
        }
      ],
      "name": "Burned",
      "type": "event"
    },
    {
      "anonymous": false,
      "inputs": [
        {
          "indexed": true,
          "internalType": "address",
          "name": "from",
          "type": "address"
        },
        {
          "indexed": true,
          "internalType": "address",
          "name": "by",
          "type": "address"
        },
        {
          "indexed": false,
          "internalType": "uint256",
          "name": "amount",
          "type": "uint256"
        }
      ],
      "name": "BurnedFrom",
      "type": "event"
    },
    {
      "anonymous": false,
      "inputs": [],
      "name": "EIP712DomainChanged",
      "type": "event"
    },
    {
      "anonymous": false,
      "inputs": [
        {
          "indexed": true,
          "internalType": "address",
          "name": "to",
          "type": "address"
        },
        {
          "indexed": false,
          "internalType": "uint256",
          "name": "amount",
          "type": "uint256"
        }
      ],
      "name": "Minted",
      "type": "event"
    },
    {
      "anonymous": false,
      "inputs": [
        {
          "indexed": false,
          "internalType": "address",
          "name": "account",
          "type": "address"
        }
      ],
      "name": "Paused",
      "type": "event"
    },
    {
      "anonymous": false,
      "inputs": [
        {
          "indexed": true,
          "internalType": "bytes32",
          "name": "role",
          "type": "bytes32"
        },
        {
          "indexed": true,
          "internalType": "bytes32",
          "name": "previousAdminRole",
          "type": "bytes32"
        },
        {
          "indexed": true,
          "internalType": "bytes32",
          "name": "newAdminRole",
          "type": "bytes32"
        }
      ],
      "name": "RoleAdminChanged",
      "type": "event"
    },
    {
      "anonymous": false,
      "inputs": [
        {
          "indexed": true,
          "internalType": "bytes32",
          "name": "role",
          "type": "bytes32"
        },
        {
          "indexed": true,
          "internalType": "address",
          "name": "account",
          "type": "address"
        },
        {
          "indexed": true,
          "internalType": "address",
          "name": "sender",
          "type": "address"
        }
      ],
      "name": "RoleGranted",
      "type": "event"
    },
    {
      "anonymous": false,
      "inputs": [
        {
          "indexed": true,
          "internalType": "bytes32",
          "name": "role",
          "type": "bytes32"
        },
        {
          "indexed": true,
          "internalType": "address",
          "name": "account",
          "type": "address"
        },
        {
          "indexed": true,
          "internalType": "address",
          "name": "sender",
          "type": "address"
        }
      ],
      "name": "RoleRevoked",
      "type": "event"
    },
    {
      "anonymous": false,
      "inputs": [
        {
          "indexed": true,
          "internalType": "address",
          "name": "from",
          "type": "address"
        },
        {
          "indexed": true,
          "internalType": "address",
          "name": "to",
          "type": "address"
        },
        {
          "indexed": false,
          "internalType": "uint256",
          "name": "value",
          "type": "uint256"
        }
      ],
      "name": "Transfer",
      "type": "event"
    },
    {
      "anonymous": false,
      "inputs": [
        {
          "indexed": false,
          "internalType": "address",
          "name": "account",
          "type": "address"
        }
      ],
      "name": "Unpaused",
      "type": "event"
    },
    {
      "inputs": [],
      "name": "BURNER_ROLE",
      "outputs": [
        {
          "internalType": "bytes32",
          "name": "",
          "type": "bytes32"
        }
      ],
      "stateMutability": "view",
      "type": "function"
    },
    {
      "inputs": [],
      "name": "DEFAULT_ADMIN_ROLE",
      "outputs": [
        {
          "internalType": "bytes32",
          "name": "",
          "type": "bytes32"
        }
      ],
      "stateMutability": "view",
      "type": "function"
    },
    {
      "inputs": [],
      "name": "DOMAIN_SEPARATOR",
      "outputs": [
        {
          "internalType": "bytes32",
          "name": "",
          "type": "bytes32"
        }
      ],
      "stateMutability": "view",
      "type": "function"
    },
    {
      "inputs": [],
      "name": "MINTER_ROLE",
      "outputs": [
        {
          "internalType": "bytes32",
          "name": "",
          "type": "bytes32"
        }
      ],
      "stateMutability": "view",
      "type": "function"
    },
    {
      "inputs": [],
      "name": "PAUSER_ROLE",
      "outputs": [
        {
          "internalType": "bytes32",
          "name": "",
          "type": "bytes32"
        }
      ],
      "stateMutability": "view",
      "type": "function"
    },
    {
      "inputs": [
        {
          "internalType": "address",
          "name": "owner",
          "type": "address"
        },
        {
          "internalType": "address",
          "name": "spender",
          "type": "address"
        }
      ],
      "name": "allowance",
      "outputs": [
        {
          "internalType": "uint256",
          "name": "",
          "type": "uint256"
        }
      ],
      "stateMutability": "view",
      "type": "function"
    },
    {
      "inputs": [
        {
          "internalType": "address",
          "name": "spender",
          "type": "address"
        },
        {
          "internalType": "uint256",
          "name": "value",
          "type": "uint256"
        }
      ],
      "name": "approve",
      "outputs": [
        {
          "internalType": "bool",
          "name": "",
          "type": "bool"
        }
      ],
      "stateMutability": "nonpayable",
      "type": "function"
    },
    {
      "inputs": [
        {
          "internalType": "address",
          "name": "account",
          "type": "address"
        }
      ],
      "name": "balanceOf",
      "outputs": [
        {
          "internalType": "uint256",
          "name": "",
          "type": "uint256"
        }
      ],
      "stateMutability": "view",
      "type": "function"
    },
    {
      "inputs": [
        {
          "internalType": "uint256",
          "name": "amount",
          "type": "uint256"
        }
      ],
      "name": "burn",
      "outputs": [],
      "stateMutability": "nonpayable",
      "type": "function"
    },
    {
      "inputs": [
        {
          "internalType": "address",
          "name": "from",
          "type": "address"
        },
        {
          "internalType": "uint256",
          "name": "amount",
          "type": "uint256"
        }
      ],
      "name": "burnFrom",
      "outputs": [],
      "stateMutability": "nonpayable",
      "type": "function"
    },
    {
      "inputs": [],
      "name": "decimals",
      "outputs": [
        {
          "internalType": "uint8",
          "name": "",
          "type": "uint8"
        }
      ],
      "stateMutability": "view",
      "type": "function"
    },
    {
      "inputs": [],
      "name": "eip712Domain",
      "outputs": [
        {
          "internalType": "bytes1",
          "name": "fields",
          "type": "bytes1"
        },
        {
          "internalType": "string",
          "name": "name",
          "type": "string"
        },
        {
          "internalType": "string",
          "name": "version",
          "type": "string"
        },
        {
          "internalType": "uint256",
          "name": "chainId",
          "type": "uint256"
        },
        {
          "internalType": "address",
          "name": "verifyingContract",
          "type": "address"
        },
        {
          "internalType": "bytes32",
          "name": "salt",
          "type": "bytes32"
        },
        {
          "internalType": "uint256[]",
          "name": "extensions",
          "type": "uint256[]"
        }
      ],
      "stateMutability": "view",
      "type": "function"
    },
    {
      "inputs": [
        {
          "internalType": "bytes32",
          "name": "role",
          "type": "bytes32"
        }
      ],
      "name": "getRoleAdmin",
      "outputs": [
        {
          "internalType": "bytes32",
          "name": "",
          "type": "bytes32"
        }
      ],
      "stateMutability": "view",
      "type": "function"
    },
    {
      "inputs": [
        {
          "internalType": "bytes32",
          "name": "role",
          "type": "bytes32"
        },
        {
          "internalType": "address",
          "name": "account",
          "type": "address"
        }
      ],
      "name": "grantRole",
      "outputs": [],
      "stateMutability": "nonpayable",
      "type": "function"
    },
    {
      "inputs": [
        {
          "internalType": "bytes32",
          "name": "role",
          "type": "bytes32"
        },
        {
          "internalType": "address",
          "name": "account",
          "type": "address"
        }
      ],
      "name": "hasRole",
      "outputs": [
        {
          "internalType": "bool",
          "name": "",
          "type": "bool"
        }
      ],
      "stateMutability": "view",
      "type": "function"
    },
    {
      "inputs": [
        {
          "internalType": "address",
          "name": "to",
          "type": "address"
        },
        {
          "internalType": "uint256",
          "name": "amount",
          "type": "uint256"
        }
      ],
      "name": "mint",
      "outputs": [],
      "stateMutability": "nonpayable",
      "type": "function"
    },
    {
      "inputs": [],
      "name": "name",
      "outputs": [
        {
          "internalType": "string",
          "name": "",
          "type": "string"
        }
      ],
      "stateMutability": "view",
      "type": "function"
    },
    {
      "inputs": [
        {
          "internalType": "address",
          "name": "owner",
          "type": "address"
        }
      ],
      "name": "nonces",
      "outputs": [
        {
          "internalType": "uint256",
          "name": "",
          "type": "uint256"
        }
      ],
      "stateMutability": "view",
      "type": "function"
    },
    {
      "inputs": [],
      "name": "pause",
      "outputs": [],
      "stateMutability": "nonpayable",
      "type": "function"
    },
    {
      "inputs": [],
      "name": "paused",
      "outputs": [
        {
          "internalType": "bool",
          "name": "",
          "type": "bool"
        }
      ],
      "stateMutability": "view",
      "type": "function"
    },
    {
      "inputs": [
        {
          "internalType": "address",
          "name": "owner",
          "type": "address"
        },
        {
          "internalType": "address",
          "name": "spender",
          "type": "address"
        },
        {
          "internalType": "uint256",
          "name": "value",
          "type": "uint256"
        },
        {
          "internalType": "uint256",
          "name": "deadline",
          "type": "uint256"
        },
        {
          "internalType": "uint8",
          "name": "v",
          "type": "uint8"
        },
        {
          "internalType": "bytes32",
          "name": "r",
          "type": "bytes32"
        },
        {
          "internalType": "bytes32",
          "name": "s",
          "type": "bytes32"
        }
      ],
      "name": "permit",
      "outputs": [],
      "stateMutability": "nonpayable",
      "type": "function"
    },
    {
      "inputs": [
        {
          "internalType": "bytes32",
          "name": "role",
          "type": "bytes32"
        },
        {
          "internalType": "address",
          "name": "callerConfirmation",
          "type": "address"
        }
      ],
      "name": "renounceRole",
      "outputs": [],
      "stateMutability": "nonpayable",
      "type": "function"
    },
    {
      "inputs": [
        {
          "internalType": "bytes32",
          "name": "role",
          "type": "bytes32"
        },
        {
          "internalType": "address",
          "name": "account",
          "type": "address"
        }
      ],
      "name": "revokeRole",
      "outputs": [],
      "stateMutability": "nonpayable",
      "type": "function"
    },
    {
      "inputs": [
        {
          "internalType": "bytes4",
          "name": "interfaceId",
          "type": "bytes4"
        }
      ],
      "name": "supportsInterface",
      "outputs": [
        {
          "internalType": "bool",
          "name": "",
          "type": "bool"
        }
      ],
      "stateMutability": "view",
      "type": "function"
    },
    {
      "inputs": [],
      "name": "symbol",
      "outputs": [
        {
          "internalType": "string",
          "name": "",
          "type": "string"
        }
      ],
      "stateMutability": "view",
      "type": "function"
    },
    {
      "inputs": [],
      "name": "totalSupply",
      "outputs": [
        {
          "internalType": "uint256",
          "name": "",
          "type": "uint256"
        }
      ],
      "stateMutability": "view",
      "type": "function"
    },
    {
      "inputs": [
        {
          "internalType": "address",
          "name": "to",
          "type": "address"
        },
        {
          "internalType": "uint256",
          "name": "value",
          "type": "uint256"
        }
      ],
      "name": "transfer",
      "outputs": [
        {
          "internalType": "bool",
          "name": "",
          "type": "bool"
        }
      ],
      "stateMutability": "nonpayable",
      "type": "function"
    },
    {
      "inputs": [
        {
          "internalType": "address",
          "name": "from",
          "type": "address"
        },
        {
          "internalType": "address",
          "name": "to",
          "type": "address"
        },
        {
          "internalType": "uint256",
          "name": "value",
          "type": "uint256"
        }
      ],
      "name": "transferFrom",
      "outputs": [
        {
          "internalType": "bool",
          "name": "",
          "type": "bool"
        }
      ],
      "stateMutability": "nonpayable",
      "type": "function"
    },
    {
      "inputs": [],
      "name": "unpause",
      "outputs": [],
      "stateMutability": "nonpayable",
      "type": "function"
    }
  ],
  "bytecode": "0x61016060405234801562000011575f80fd5b5060405162001dc638038062001dc68339810160408190526200003491620003f8565b6040518060400160405280600a81526020016908eded8c8cadce4eae6d60b31b81525080604051806040016040528060018152602001603160f81b8152506040518060400160405280600a81526020016908eded8c8cadce4eae6d60b31b8152506040518060400160405280600581526020016408ea4aaa6960db1b8152508160039081620000c49190620004f0565b506004620000d38282620004f0565b50620000e591508390506005620002aa565b61012052620000f6816006620002aa565b61014052815160208084019190912060e052815190820120610100524660a0526200018360e05161010051604080517f8b73c3c69bb8fe3d512ecc4cf759cc79239f7b179b0ffacaa9a75d522b39400f60208201529081019290925260608201524660808201523060a08201525f9060c00160405160208183030381529060405280519060200120905090565b60805250503060c052506001600160a01b038416620001b55760405163d92e233d60e01b815260040160405180910390fd5b620001c15f85620002e2565b505f6001600160a01b03841615620001da5783620001dc565b845b90505f6001600160a01b03841615620001f65783620001f8565b855b90505f6001600160a01b0384161562000212578362000214565b865b9050620002427f9f2df0fed2c77648de5860a4cc508cd0818c85b8b8a1ab4ceeef8d981c8956a684620002e2565b506200026f7f3c11d16cbaffd01df69ce1c404f6340ee057498f5f00246190ea54220576a84883620002e2565b506200029c7f65d7a28e3265b37a6474929f336521b332c1681b933f6cb9f3376673440d862a82620002e2565b50505050505050506200062e565b5f602083511015620002c957620002c18362000391565b9050620002dc565b81620002d68482620004f0565b5060ff90505b92915050565b5f8281526008602090815260408083206001600160a01b038516845290915281205460ff1662000389575f8381526008602090815260408083206001600160a01b03861684529091529020805460ff19166001179055620003403390565b6001600160a01b0316826001600160a01b0316847f2f8788117e7eff1d82e926ec794901d17c78024a50270940304540a733656f0d60405160405180910390a4506001620002dc565b505f620002dc565b5f80829050601f81511115620003c7578260405163305a27a960e01b8152600401620003be9190620005bc565b60405180910390fd5b8051620003d4826200060a565b179392505050565b80516001600160a01b0381168114620003f3575f80fd5b919050565b5f805f80608085870312156200040c575f80fd5b6200041785620003dc565b93506200042760208601620003dc565b92506200043760408601620003dc565b91506200044760608601620003dc565b905092959194509250565b634e487b7160e01b5f52604160045260245ffd5b600181811c908216806200047b57607f821691505b6020821081036200049a57634e487b7160e01b5f52602260045260245ffd5b50919050565b601f821115620004eb57805f5260205f20601f840160051c81016020851015620004c75750805b601f840160051c820191505b81811015620004e8575f8155600101620004d3565b50505b505050565b81516001600160401b038111156200050c576200050c62000452565b62000524816200051d845462000466565b84620004a0565b602080601f8311600181146200055a575f8415620005425750858301515b5f19600386901b1c1916600185901b178555620005b4565b5f85815260208120601f198616915b828110156200058a5788860151825594840194600190910190840162000569565b5085821015620005a857878501515f19600388901b60f8161c191681555b505060018460011b0185555b505050505050565b5f602080835283518060208501525f5b81811015620005ea57858101830151858201604001528201620005cc565b505f604082860101526040601f19601f8301168501019250505092915050565b805160208083015191908110156200049a575f1960209190910360031b1b16919050565b60805160a05160c05160e051610100516101205161014051611746620006805f395f610e9501525f610e6801525f610cab01525f610c8301525f610bde01525f610c0801525f610c3201526117465ff3fe608060405234801561000f575f80fd5b50600436106101c6575f3560e01c80635c975abb116100fe57806395d89b411161009e578063d53913931161006e578063d5391393146103b9578063d547741f146103e0578063dd62ed3e146103f3578063e63ab1e91461042b575f80fd5b806395d89b4114610384578063a217fddf1461038c578063a9059cbb14610393578063d505accf146103a6575f80fd5b80637ecebe00116100d95780637ecebe001461033b5780638456cb591461034e57806384b0196e1461035657806391d1485414610371575f80fd5b80635c975abb146102f557806370a082311461030057806379cc679014610328575f80fd5b80632f2ff15d1161016957806336568abe1161014457806336568abe146102b45780633f4ba83a146102c757806340c10f19146102cf57806342966c68146102e2575f80fd5b80632f2ff15d14610288578063313ce5671461029d5780633644e515146102ac575f80fd5b806318160ddd116101a457806318160ddd1461021a57806323b872dd1461022c578063248a9ca31461023f578063282c51f314610261575f80fd5b806301ffc9a7146101ca57806306fdde03146101f2578063095ea7b314610207575b5f80fd5b6101dd6101d8366004611420565b610452565b60405190151581526020015b60405180910390f35b6101fa610462565b6040516101e99190611491565b6101dd6102153660046114be565b6104f2565b6002545b6040519081526020016101e9565b6101dd61023a3660046114e6565b610509565b61021e61024d36600461151f565b5f9081526008602052604090206001015490565b61021e7f3c11d16cbaffd01df69ce1c404f6340ee057498f5f00246190ea54220576a84881565b61029b610296366004611536565b61052c565b005b604051601281526020016101e9565b61021e610556565b61029b6102c2366004611536565b610564565b61029b61059c565b61029b6102dd3660046114be565b6105d1565b61029b6102f036600461151f565b610694565b60095460ff166101dd565b61021e61030e366004611560565b6001600160a01b03165f9081526020819052604090205490565b61029b6103363660046114be565b610721565b61021e610349366004611560565b6107ed565b61029b61080a565b61035e61083c565b6040516101e99796959493929190611579565b6101dd61037f366004611536565b61087e565b6101fa6108a8565b61021e5f81565b6101dd6103a13660046114be565b6108b7565b61029b6103b4366004611610565b6108c4565b61021e7f9f2df0fed2c77648de5860a4cc508cd0818c85b8b8a1ab4ceeef8d981c8956a681565b61029b6103ee366004611536565b6109ff565b61021e61040136600461167d565b6001600160a01b039182165f90815260016020908152604080832093909416825291909152205490565b61021e7f65d7a28e3265b37a6474929f336521b332c1681b933f6cb9f3376673440d862a81565b5f61045c82610a23565b92915050565b606060038054610471906116a5565b80601f016020809104026020016040519081016040528092919081815260200182805461049d906116a5565b80156104e85780601f106104bf576101008083540402835291602001916104e8565b820191905f5260205f20905b8154815290600101906020018083116104cb57829003601f168201915b5050505050905090565b5f336104ff818585610a57565b5060019392505050565b5f33610516858285610a64565b610521858585610ada565b506001949350505050565b5f8281526008602052604090206001015461054681610b37565b6105508383610b41565b50505050565b5f61055f610bd2565b905090565b6001600160a01b038116331461058d5760405163334bd91960e11b815260040160405180910390fd5b6105978282610cfb565b505050565b7f65d7a28e3265b37a6474929f336521b332c1681b933f6cb9f3376673440d862a6105c681610b37565b6105ce610d66565b50565b7f9f2df0fed2c77648de5860a4cc508cd0818c85b8b8a1ab4ceeef8d981c8956a66105fb81610b37565b6001600160a01b0383166106225760405163d92e233d60e01b815260040160405180910390fd5b815f0361064257604051631f2a200560e01b815260040160405180910390fd5b61064c8383610db8565b826001600160a01b03167f30385c845b448a36257a6a1716e6ad2e1bc2cbe333cde1e69fe849ad6511adfe8360405161068791815260200190565b60405180910390a2505050565b7f3c11d16cbaffd01df69ce1c404f6340ee057498f5f00246190ea54220576a8486106be81610b37565b815f036106de57604051631f2a200560e01b815260040160405180910390fd5b6106e83383610df0565b60405182815233907f696de425f79f4a40bc6d2122ca50507f0efbeabbff86a84871b7196ab8ea8df79060200160405180910390a25050565b7f3c11d16cbaffd01df69ce1c404f6340ee057498f5f00246190ea54220576a84861074b81610b37565b6001600160a01b0383166107725760405163d92e233d60e01b815260040160405180910390fd5b815f0361079257604051631f2a200560e01b815260040160405180910390fd5b61079d833384610a64565b6107a78383610df0565b60405182815233906001600160a01b038516907fef6c5694e6dbd2044aa5fb38febfdc81f65c8f98c9896c7add9f82d0fb4cee4f906020015b60405180910390a3505050565b6001600160a01b0381165f9081526007602052604081205461045c565b7f65d7a28e3265b37a6474929f336521b332c1681b933f6cb9f3376673440d862a61083481610b37565b6105ce610e24565b5f6060805f805f606061084d610e61565b610855610e8e565b604080515f80825260208201909252600f60f81b9b939a50919850469750309650945092509050565b5f9182526008602090815260408084206001600160a01b0393909316845291905290205460ff1690565b606060048054610471906116a5565b5f336104ff818585610ada565b834211156108ed5760405163313c898160e11b8152600481018590526024015b60405180910390fd5b5f7f6e71edae12b1b97f4d1f60370fef10105fa2faae0126114a169c64845d6126c98888886109388c6001600160a01b03165f90815260076020526040902080546001810190915590565b6040805160208101969096526001600160a01b0394851690860152929091166060840152608083015260a082015260c0810186905260e0016040516020818303038152906040528051906020012090505f61099282610ebb565b90505f6109a182878787610ee7565b9050896001600160a01b0316816001600160a01b0316146109e8576040516325c0072360e11b81526001600160a01b0380831660048301528b1660248201526044016108e4565b6109f38a8a8a610a57565b50505050505050505050565b5f82815260086020526040902060010154610a1981610b37565b6105508383610cfb565b5f6001600160e01b03198216637965db0b60e01b148061045c57506301ffc9a760e01b6001600160e01b031983161461045c565b6105978383836001610f13565b6001600160a01b038381165f908152600160209081526040808320938616835292905220545f198110156105505781811015610acc57604051637dc7a0d960e11b81526001600160a01b038416600482015260248101829052604481018390526064016108e4565b61055084848484035f610f13565b6001600160a01b038316610b0357604051634b637e8f60e11b81525f60048201526024016108e4565b6001600160a01b038216610b2c5760405163ec442f0560e01b81525f60048201526024016108e4565b610597838383610fe5565b6105ce8133610ff8565b5f610b4c838361087e565b610bcb575f8381526008602090815260408083206001600160a01b03861684529091529020805460ff19166001179055610b833390565b6001600160a01b0316826001600160a01b0316847f2f8788117e7eff1d82e926ec794901d17c78024a50270940304540a733656f0d60405160405180910390a450600161045c565b505f61045c565b5f306001600160a01b037f000000000000000000000000000000000000000000000000000000000000000016148015610c2a57507f000000000000000000000000000000000000000000000000000000000000000046145b15610c5457507f000000000000000000000000000000000000000000000000000000000000000090565b61055f604080517f8b73c3c69bb8fe3d512ecc4cf759cc79239f7b179b0ffacaa9a75d522b39400f60208201527f0000000000000000000000000000000000000000000000000000000000000000918101919091527f000000000000000000000000000000000000000000000000000000000000000060608201524660808201523060a08201525f9060c00160405160208183030381529060405280519060200120905090565b5f610d06838361087e565b15610bcb575f8381526008602090815260408083206001600160a01b0386168085529252808320805460ff1916905551339286917ff6391f5c32d9c69d2a47ea670b442974b53935d1edc7fd64eb21e047a839171b9190a450600161045c565b610d6e611031565b6009805460ff191690557f5db9ee0a495bf2e6ff9c91a7834c1ba4fdd244a5e8aa4e537bd38aeae4b073aa335b6040516001600160a01b03909116815260200160405180910390a1565b6001600160a01b038216610de15760405163ec442f0560e01b81525f60048201526024016108e4565b610dec5f8383610fe5565b5050565b6001600160a01b038216610e1957604051634b637e8f60e11b81525f60048201526024016108e4565b610dec825f83610fe5565b610e2c611056565b6009805460ff191660011790557f62e78cea01bee320cd4e420270b5ea74000d11b0c9f74754ebdbfc544b05a258610d9b3390565b606061055f7f0000000000000000000000000000000000000000000000000000000000000000600561107a565b606061055f7f0000000000000000000000000000000000000000000000000000000000000000600661107a565b5f61045c610ec7610bd2565b8360405161190160f01b8152600281019290925260228201526042902090565b5f805f80610ef788888888611123565b925092509250610f0782826111eb565b50909695505050505050565b6001600160a01b038416610f3c5760405163e602df0560e01b81525f60048201526024016108e4565b6001600160a01b038316610f6557604051634a1406b160e11b81525f60048201526024016108e4565b6001600160a01b038085165f908152600160209081526040808320938716835292905220829055801561055057826001600160a01b0316846001600160a01b03167f8c5be1e5ebec7d5bd14f71427d1e84f3dd0314c0f7b2291e5b200ac8c7c3b92584604051610fd791815260200190565b60405180910390a350505050565b610fed611056565b6105978383836112a3565b611002828261087e565b610dec5760405163e2517d3f60e01b81526001600160a01b0382166004820152602481018390526044016108e4565b60095460ff1661105457604051638dfc202b60e01b815260040160405180910390fd5b565b60095460ff16156110545760405163d93c066560e01b815260040160405180910390fd5b606060ff83146110945761108d836113bc565b905061045c565b8180546110a0906116a5565b80601f01602080910402602001604051908101604052809291908181526020018280546110cc906116a5565b80156111175780601f106110ee57610100808354040283529160200191611117565b820191905f5260205f20905b8154815290600101906020018083116110fa57829003601f168201915b5050505050905061045c565b5f80807f7fffffffffffffffffffffffffffffff5d576e7357a4501ddfe92f46681b20a084111561115c57505f915060039050826111e1565b604080515f808252602082018084528a905260ff891692820192909252606081018790526080810186905260019060a0016020604051602081039080840390855afa1580156111ad573d5f803e3d5ffd5b5050604051601f1901519150506001600160a01b0381166111d857505f9250600191508290506111e1565b92505f91508190505b9450945094915050565b5f8260038111156111fe576111fe6116dd565b03611207575050565b600182600381111561121b5761121b6116dd565b036112395760405163f645eedf60e01b815260040160405180910390fd5b600282600381111561124d5761124d6116dd565b0361126e5760405163fce698f760e01b8152600481018290526024016108e4565b6003826003811115611282576112826116dd565b03610dec576040516335e2f38360e21b8152600481018290526024016108e4565b6001600160a01b0383166112cd578060025f8282546112c291906116f1565b9091555061133d9050565b6001600160a01b0383165f908152602081905260409020548181101561131f5760405163391434e360e21b81526001600160a01b038516600482015260248101829052604481018390526064016108e4565b6001600160a01b0384165f9081526020819052604090209082900390555b6001600160a01b03821661135957600280548290039055611377565b6001600160a01b0382165f9081526020819052604090208054820190555b816001600160a01b0316836001600160a01b03167fddf252ad1be2c89b69c2b068fc378daa952ba7f163c4a11628f55a4df523b3ef836040516107e091815260200190565b60605f6113c8836113f9565b6040805160208082528183019092529192505f91906020820181803683375050509182525060208101929092525090565b5f60ff8216601f81111561045c57604051632cd44ac360e21b815260040160405180910390fd5b5f60208284031215611430575f80fd5b81356001600160e01b031981168114611447575f80fd5b9392505050565b5f81518084525f5b8181101561147257602081850181015186830182015201611456565b505f602082860101526020601f19601f83011685010191505092915050565b602081525f611447602083018461144e565b80356001600160a01b03811681146114b9575f80fd5b919050565b5f80604083850312156114cf575f80fd5b6114d8836114a3565b946020939093013593505050565b5f805f606084860312156114f8575f80fd5b611501846114a3565b925061150f602085016114a3565b9150604084013590509250925092565b5f6020828403121561152f575f80fd5b5035919050565b5f8060408385031215611547575f80fd5b82359150611557602084016114a3565b90509250929050565b5f60208284031215611570575f80fd5b611447826114a3565b60ff60f81b881681525f602060e0602084015261159960e084018a61144e565b83810360408501526115ab818a61144e565b606085018990526001600160a01b038816608086015260a0850187905284810360c0860152855180825260208088019350909101905f5b818110156115fe578351835292840192918401916001016115e2565b50909c9b505050505050505050505050565b5f805f805f805f60e0888a031215611626575f80fd5b61162f886114a3565b965061163d602089016114a3565b95506040880135945060608801359350608088013560ff81168114611660575f80fd5b9699959850939692959460a0840135945060c09093013592915050565b5f806040838503121561168e575f80fd5b611697836114a3565b9150611557602084016114a3565b600181811c908216806116b957607f821691505b6020821081036116d757634e487b7160e01b5f52602260045260245ffd5b50919050565b634e487b7160e01b5f52602160045260245ffd5b8082018082111561045c57634e487b7160e01b5f52601160045260245ffdfea264697066735822122033502bba9f8913f9d7ab716357c6849922420157483e8cd02d729f766f173c8264736f6c63430008180033",
  "linkReferences": {},
  "deployedLinkReferences": {},
  "immutableReferences": {
    "3789": [
      {
        "length": 32,
        "start": 3122
      }
    ],
    "3791": [
      {
        "length": 32,
        "start": 3080
      }
    ],
    "3793": [
      {
        "length": 32,
        "start": 3038
      }
    ],
    "3795": [
      {
        "length": 32,
        "start": 3203
      }
    ],
    "3797": [
      {
        "length": 32,
        "start": 3243
      }
    ],
    "3800": [
      {
        "length": 32,
        "start": 3688
      }
    ],
    "3803": [
      {
        "length": 32,
        "start": 3733
      }
    ]
  },
  "inputSourceName": "project/contracts/src/GRUSHToken.sol",
  "buildInfoId": "solc-0_8_24-bce14a37705e483c49b05ee9af007ecbe654a1a0"
}